:020000040800F2
:10000000305B002075020008B10800085D08000898
:10001000AD0800083D070008CF0D000800000000F3
:10002000000000000000000000000000DD010008EA
:100030004107000800000000210200083D0B0008F5
:100040008F0200088F0200088F0200088F0200084C
:100050008F0200088F0200088F0200088F0200083C
:100060008F0200088F0200088F0200088F0200082C
:100070008F0200088F0200088F0200088F0200081C
:100080008F0200088F0200088F0200088F0200080C
:100090008F0200088F0200088F0200088F020008FC
:1000A0008F0200088F0200088F0200088F020008EC
:1000B0008F0200088F0200088F0200088F020008DC
:1000C0008F0200088F0200088F0200088F020008CC
:1000D0008F020008AD0B00088F0200088F02000895
:1000E0008F0200088F0200088F0200088F020008AC
:1000F0008F0200088F0200088F0200088F0200089C
:100100008F0200088F0200088F0200088F0200088B
:100110008F0200088F0200088F0200088F0200087B
:100120008F0200088F0200088F0200088F0200086B
:1001300000F002F800F042F80AA090E8000C8244B7
:100140008344AAF10107DA4501D100F037F8AFF294
:10015000090EBAE80F0013F0010F18BFFB1A43F0A5
:10016000010318476430000084300000103A24BFB7
:1001700078C878C1FAD8520724BF30C830C144BF0C
:1001800004680C607047000000230024002500264E
:10019000103A28BF78C1FBD8520728BF30C148BFEA
:1001A0000B607047642900F0F180732900F0FE8134
:1001B000002070471FB51FBD10B510BD00F08BFAB1
:1001C0001146FFF7F7FF00F07BFE00F0A9FA03B439
:1001D000FFF7F2FF03BC00F0FCFD0000224B1968A2
:1001E0000868B0E8F00F80F30988BFF36F8F4FF015
:1001F000000080F311884EF00D0E704700000000E3
:1002000006480068006880F3088862B661B6BFF3EC
:100210004F8FBFF36F8F00DF00BF00BF08ED00E01E
:10022000EFF30980BFF36F8F0F4B1A6820E9F00FCF
:10023000106008B54FF0500080F31188BFF34F8F66
:10024000BFF36F8F02F0FAF84FF0000080F31188CF
:10025000BDE8084019680868B0E8F00F80F3098825
:10026000BFF36F8F704700BF00000020EFF30580E1
:10027000704700000948804709480047FEE7FEE74D
:10028000FEE7FEE7FEE7FEE7FEE7FEE7FEE7FEE746
:1002900004480549054A064B704700004D0B00080D
:1002A0003101000830550020305B0020305700201D
:1002B00030570020704700000FB4044910B503AA5E
:1002C000029800F077F910BC5DF814FB8C00002058
:1002D0002DE9F0410E460446002020622046E168E8
:1002E000884730B3252805D0D4E901219047206AFA
:1002F000401CF2E7E168204600278847050018D037
:10030000A5F14100192802D820354FF40067324684
:10031000294620462760FFF745FF40B1012804D059
:10032000F61D26F007060836D8E7361DD6E728461C
:10033000DAE7206ABDE8F08170B50C460546012A6F
:1003400005D02878800600D5EA69002302E0012361
:1003500005E05B1C934202D2E05C0028F9D1A86959
:10036000E618C01AA861286A184428622846AFF324
:10037000008004E0D5E9012114F8010B9047B44254
:10038000F8D32846AFF3008070BD00002DE9F0419E
:100390000646002410687529314616A510D0AFF323
:1003A0000080002802DA404213A507E031688A077E
:1003B00001D512A502E0490704D511A5012401E0E9
:1003C000AFF3008000210A2206F1240709E0B0FB08
:1003D000F2FCB0FBF2F302FB1C00303078541846FC
:1003E000491C0028F3D123462A463046BDE8F04197
:1003F00000F059B8000000002D0000002B000000A4
:1004000020000000032A40F2308010F0030C00F0BE
:10041000158011F8013BBCF1020F624498BF11F83E
:1004200001CB00F8013B38BF11F8013BA2F10402F7
:1004300098BF00F801CB38BF00F8013B11F003036F
:1004400000F0CA80083AC0F0088051F8043B083A2E
:1004500051F804CBA0E80810F5E7121D5CBF51F875
:10046000043B40F8043BAFF30080D20724BF11F8EF
:10047000013B11F801CB48BF11F8012B24BF00F854
:10048000013B00F801CB48BF00F8012B704702F098
:10049000FF0343EA032242EA024200F0D1B8704768
:1004A0007047704770472DE9F0470D4699469246D0
:1004B000044600F124080168880604D5E06921F0AB
:1004C0001001216000E00120A84201DD471B00E08F
:1004D0000027A1697A1902EB0900081AA0612078A7
:1004E000C00602D42046AFF30080002608E0D4E91D
:1004F00001211AF806009047206A401C761C2062F1
:100500004E45F4DB2078C0060AD52046AFF30080C4
:1005100006E0D4E9012130209047206A401C206287
:10052000381EA7F10107F4DC07E0D4E9012118F82F
:1005300005009047206A401C2062281EA5F1010595
:10054000F3DC2046AFF300802078000602D50220BD
:10055000BDE8F0870120FBE701694A1C02610878C9
:10056000704700B58FB0CDE90131002105910549F3
:100570007944CDE9031011466846FFF7A9FE0FB094
:1005800000BD0000E5FFFFFF10B5436913B1AFF3F5
:10059000008001E0FFF7D0FE012010BD127800F1CD
:1005A00024010A7000224A700122EDE711684FF021
:1005B000FF32E9E7074B70B50D467B44FFF7D1FFEB
:1005C0000446284600F05CF810B14FF0FF3070BDD3
:1005D000204670BD7708000010B5203AC0F00B80AF
:1005E000B1E81850203AA0E81850B1E81850A0E837
:1005F0001850BFF4F5AF5FEA027C24BFB1E8185091
:10060000A0E8185044BF18C918C0BDE810405FEA00
:10061000827C24BF51F8043B40F8043B08BF70477C
:10062000D20728BF31F8023B48BF11F8012B28BF81
:1006300020F8023B48BF00F8012B70474FF0000242
:100640000429C0F0128010F0030C00F01F80CCF1E0
:10065000040CBCF1020F18BF00F8012BA8BF20F852
:10066000022BA1EB0C0100F011B85FEAC17C24BFA2
:1006700000F8012B00F8012B48BF00F8012B704750
:10068000007B00F0800070474FF0000200B5134679
:1006900094469646203922BFA0E80C50A0E80C50A2
:1006A000B1F12001BFF4F7AF090728BFA0E80C5053
:1006B00048BF0CC05DF804EB890028BF40F8042B4C
:1006C00008BF704748BF20F8022B11F0804F18BFB9
:1006D00000F8012B7047754600F02CF8AE46050077
:1006E0006946534620F00700854618B020B5FFF74D
:1006F000CFFDBDE820404FF000064FF000074FF05F
:1007000000084FF0000B21F00701AC46ACE8C0092F
:10071000ACE8C009ACE8C009ACE8C0098D46704738
:1007200010B50446AFF300802046BDE81040FFF747
:100730004EBD000000487047CC54002000BFFEE7CB
:1007400070472DE9F04102460025002600200023D5
:100750000024002791F803C00CF00F0591F803C0A6
:100760000CF0100CBCF1000F03D091F802C04CEA61
:10077000050591F800C0BCF1000F31D014680020CD
:100780002BE04FF0010C0CFA00F3B1F800C00CEABA
:1007900003069E4220D183004FF00F0C0CFA03F7A2
:1007A000BC4305FA03FC4CEA040491F803C0BCF115
:1007B000280F06D14FF0010C0CFA00FCC2F814C04F
:1007C0000AE091F803C0BCF1480F05D14FF0010CCD
:1007D0000CFA00FCC2F810C0401C0828D1D31460E9
:1007E000B1F800C0BCF1FF0F34DD546800202EE0EA
:1007F00000F1080C4FF0010808FA0CF3B1F800C042
:100800000CEA03069E4221D183004FF00F0C0CFA34
:1008100003F7BC4305FA03FC4CEA040491F803C057
:10082000BCF1280F05D100F1080C08FA0CF8C2F849
:10083000148091F803C0BCF1480F07D100F1080CF7
:100840004FF0010808FA0CF8C2F81080401C082884
:10085000CED35460BDE8F0810161704700BFFEE770
:1008600008B50121182000F067F81820ADF8000045
:1008700010208DF8030003208DF802006946094816
:10088000FFF75FFF18210748FFF7E6FF0120ADF8EB
:10089000000069460448FFF754FF01210248FFF7B2
:1008A000DBFF08BD00100140000C014000BFFEE767
:1008B0007047000070B5002100230F22C47804B3F4
:1008C000154C246804F4E064C4F5E064210AC1F125
:1008D0000403CA40447804FA03F1847814402143A5
:1008E00009010E4C0678A155047804F01F05012477
:1008F000AC4005786D11AD0005F1E025C5F800416B
:1009000009E0047804F01F050124AC40044D06788A
:10091000761145F8264070BD0CED00E000E400E0E3
:1009200080E100E002490143024A11607047000083
:100930000000FA050CED00E029B1064A9269024375
:10094000044B9A6104E0034A92698243014B9A6125
:10095000704700000010024030B500210022002442
:1009600000232D4D6D6805F00C0121B1042905D03F
:10097000082923D105E0294D056022E0274D0560B7
:100980001FE0254D6D6805F47012234D6D6805F468
:100990008034022505EB92421CB9214D5543056078
:1009A0000BE01D4D6D6805F400351DB11C4D554320
:1009B000056002E0194D5543056002E0174D0560E2
:1009C00000BF00BF144D6D6805F0F0010909154D19
:1009D0006B5C0568DD4045600F4D6D6805F4E061B6
:1009E000090A104D6B5C4568DD4085600A4D6D68F5
:1009F00005F46051C90A0B4D6B5C4568DD40C5606C
:100A0000054D6D6805F44041890B074D6B5CC56869
:100A1000B5FBF3F5056130BD0010024000127A000D
:100A200000093D00740000208400002010B500F093
:100A300001F810BD0CB5002001900090334800680B
:100A400040F480303149086000BF3048006800F44D
:100A5000003000900198401C0190009818B901984E
:100A6000B0F5A06FF1D12948006800F4003010B152
:100A70000120009001E0002000900098012843D15F
:100A80002348006840F010002149086008460068CB
:100A900020F0030008600846006840F0020008608B
:100AA0001A48406819494860084640684860084646
:100AB000406840F4806048600846406820F47C103C
:100AC00048600846406840F4E810486008460068FE
:100AD00040F08070086000BF0C48006800F00070B3
:100AE0000028F9D00948406820F003000749486011
:100AF0000846406840F00200486000BF0348406874
:100B000000F00C000828F9D10CBD000000100240D4
:100B100000200240042808D14FF0E021096941F08B
:100B200004014FF0E022116107E04FF0E021096974
:100B300021F004014FF0E0221161704710B502F07E
:100B40009BF8012801D001F01DFD10BD10B5134820
:100B5000006840F0010011490860084640681049EB
:100B600008400E494860084600680E4908400B4995
:100B700008600846006820F4802008600846406845
:100B800020F4FE0048604FF41F008860FFF74EFF1E
:100B90004FF000600449086010BD000000100240E2
:100BA0000000FFF8FFFFF6FE08ED00E010B540F290
:100BB00025511D4800F04AF810B31B4800F002F917
:100BC000C4B21A48008800F40040C8B91748008829
:100BD00000F4804060B10A2C03D000201349088043
:100BE00020E01248008840F400401049088019E0D5
:100BF0000D2C06D10D48008840F480400B49088038
:100C000010E00A480088C0F30D0009490C54074859
:100C10000088401C0549088008460088C72801DD77
:100C20000020088010BD0000003801409000002026
:100C30000454002021B1828942F40052828104E0F0
:100C400082894DF6FF731A408281704770B5024663
:100C5000002400230025002040F66A16B14200D18E
:100C600000BFC1F3421501F01F03012606FA03F38A
:100C7000012D02D19689334006E0022D02D1168A59
:100C8000334001E0968A33400C12012606FA04F440
:100C90001688344013B10CB1012000E0002070BD73
:100CA000F0B50346002400260025002040F66A1710
:100CB000B94200D100BF1846C1F3421401F01F062B
:100CC000012707FA06F5012C01D10C3004E0022CB3
:100CD00001D1103000E014301AB107682F430760CB
:100CE00002E00768AF430760F0BD00002DE9F04760
:100CF00086B005460E460024A24600BFA146002746
:100D0000B08900B100BF2F462C8A4CF6FF7004401A
:100D1000F08804432C82AC894EF6F3100440B0886E
:100D200031890843718908430443AC81AC8A4FF68A
:100D3000FF400440B0890443AC8201A8FFF70CFED9
:100D40001F48874202D1DDF810A001E0DDF80CA0B9
:100D5000A88900F4004040B10AEBCA0000EB0A1079
:100D600031684900B0FBF1F807E00AEBCA0000EB7C
:100D70000A1031688900B0FBF1F86420B8FBF0F08C
:100D800004012009642101FB1089A88900F40040B6
:100D900040B1322000EBC900B0FBF1F000F00700D9
:100DA000044308E0322000EB09106421B0FBF1F0AD
:100DB00000F00F0004432C8106B0BDE8F08700006E
:100DC0000038014001468888C0F30800704700BF22
:100DD000FEE700BF7047000010B50420FFF79AFE41
:100DE000104800681049B0FBF1F0104908700D4838
:100DF00000680D49B0FBF1F44FF47A7044430120D0
:100E00000B4908804FF0E020006940F002004FF0ED
:100E1000E021086108464461006940F00100086172
:100E200010BD0000A400002040420F0088000020F8
:100E30008A00002000BF054A128802F04002002A02
:100E4000F9D0C2B2014B1B1D1A8070470038014017
:100E500008E005480068C0430449C1F88C016420DB
:100E600001F0F2F8F5E700008C0122420000224276
:100E70000CE0002006490860642001F0E5F801203C
:100E80000449C1F89001642001F0DEF8F1E70000A8
:100E900090012242000022420CE000200649086036
:100EA000142001F0D1F801200449C1F8800150203C
:100EB00001F0CAF8F1E70000808121420080214260
:100EC0001CB54FF44070FFF72DFDFFF785FF4FF481
:100ED000E13000F0ABFEFFF7C3FC0748012100231F
:100EE0008022CDE9001005A1074801F095FE01F030
:100EF00047FA00201CBD000094000020737461724A
:100F0000745F7461736B0000991B00082DE9F04158
:100F100005460E461C4807681C480068001D00F086
:100F2000D5FE50B91948006890F82C10012088406F
:100F300017490968814316480160681C38B936B101
:100F400012480168091D134800F0FEFE1AE07C19E2
:100F50000E4800684460BC4207D20C480168091D75
:100F60000D48006800F0D6FE0CE008480168091D35
:100F70000A48006800F0CEFE09480068844201D2A9
:100F800007480460BDE8F081140000200000002044
:100F900018000020C80300200800002004000020E2
:100FA0003000002010B5044600F0DAFE2448006846
:100FB000401C234908602348006840B92148046068
:100FC0000846006801280DD100F0EEF90AE01E483D
:100FD000006838B91B480068C06AE16A884201D8D5
:100FE0001848046019480068401C18490860084601
:100FF0000068606494F82C10012088401449096846
:10100000084313490860E16A01EB8101114A02EBD0
:101010008100211D00F098FE00F0E6FE0A480068FD
:1010200068B108480068C06AE16A884207D24FF098
:10103000805009490860BFF34F8FBFF36F8F10BD19
:1010400010000020000000201C0000202C000020C8
:1010500018000020F800002004ED00E010B500F0BA
:101060007FFE10480068D0B90F4800F043FE0F48DB
:1010700000F040FE0C480E4908600C480D4908601D
:1010800000221021052001F097FA06490860084661
:10109000006820B108A10348006800F099FF00F043
:1010A000A3FE10BD44000020DC030020F00300205C
:1010B0003C00002040000020546D725100000000F0
:1010C00070B523E001F0B2F91348006808B90120B7
:1010D00000E00020054601F05BFFBDB900F040FED6
:1010E0000D48C068C468201D00F0F0FD0B48006882
:1010F000401E0A4908600A480068401E0849086006
:1011000000F072FE204600F060F800BF044800685E
:101110000028D7D170BD0000B403002010000020CB
:101120000C00002070B504460D46206C70B1216C97
:10113000E0680844E0606168E068884201D32068A4
:10114000E0602846226CE168FFF75CF970BD2DE98C
:10115000F04104460F4615464FF00008A66B206C80
:1011600040B9206860BB606801F04CFE80460020FA
:10117000606025E07DB93946226CA068FFF742F92E
:10118000216CA0680844A060D4E90110884217D3FC
:101190002068A06014E03946226CE068FFF732F95D
:1011A000216CE068401AE0602168E068884203D260
:1011B000216C6068401AE060022D01D106B1761EF4
:1011C000701CA0634046BDE8F08110B50446206B5A
:1011D00000F042FE204600F03FFE10BD0146084AE6
:1011E000126812680AB9012200E000220A600A6847
:1011F00022B9034A1268D268106800E000207047E4
:101200003C00002030B54FF4A043174800F007041D
:101210002CB1C01D20F00700134C041B1B1B024601
:10122000124C22600024114D6C60D018083820F058
:1012300007000F4C206000240D4D2D686C600C4D94
:101240002D682C601146441A4C60094C24680C60CF
:10125000084D4C682C60084D4C682C604FF00044E1
:10126000064D2C6030BD000004040020500000201A
:1012700058000020600000205C0000206400002076
:1012800000BFFFF71DFF064800680128F9D94FF09D
:10129000805004490860BFF34F8FBFF36F8FF0E7B2
:1012A000F800002004ED00E02DE9F04106460D466F
:1012B00017469846069C0DB9246000E02760E66357
:1012C00025640121204601F095FA84F85080002021
:1012D000A064BDE8F08100002DE9F05F82460F4672
:1012E00090469B460A9E0C9C4FEA8801A522206BE3
:1012F000FFF7CDF8A8F10100216B01EB800929F07F
:10130000070909F0070008B9012000E0002028B90A
:1013100040F22B321BA120A0FEF7CEFF002507E0F4
:10132000795D04F134004155785D00B902E06D1C2F
:10133000102DF5D300BF002143200155202E00D3EE
:101340001F26E662E66400202065201D00F0DFFC19
:1013500004F1180000F0DBFC2461C6F12000A0615C
:1013600064620020606584F858005A465146484639
:1013700000F000FC20600B9808B10B980460BDE8F9
:10138000F09F00002E2E5C46726565524F54535CF0
:101390007461736B732E63004572726F723A2573BA
:1013A0002C25640D0A00000010B5002407E004EBB2
:1013B00084010F4A02EB810000F09CFC641C202C8D
:1013C000F5D30C4800F096FC0B4800F093FC0B485A
:1013D00000F090FC0A4800F08DFC0A4800F08AFCFE
:1013E00004480949086004480849086010BD000025
:1013F000F8000020780300208C030020A0030020C8
:10140000B4030020C80300200400002008000020CE
:1014100010B50146164800E0006803688B42FBD314
:101420000246436813448B4204D143684C6823440A
:10143000436001460A464B6813440468A34211D135
:101440000C4C03682468A34208D04B6804686468A5
:1014500023444B6003681B680B6005E0054B1B6869
:101460000B6001E003680B60884200D0016010BD92
:1014700050000020580000202DE9F04104460D46A0
:1014800016461F464FF0000865602461B5420CD82F
:10149000F01BA169884202D34FF0010811E0211D21
:1014A0000948006800F036FC0BE0BE4204D2BD42A1
:1014B00002D34FF0010804E0211D0448006800F049
:1014C00029FC4046BDE8F081400000203C0000209F
:1014D00070B5054600F044FCA86B08B9012400E093
:1014E000002400F081FC204670BD70B5054600F078
:1014F00037FCA86BE96B884201D1012400E000248D
:1015000000F072FC204670BD2DE9F3410D460098B5
:10151000846C00272CB940F6CE121AA11EA0FEF74B
:10152000CBFEA06BE16B884201D2012000E00020DD
:1015300028B940F6CF1213A117A0FEF7BDFEA06B8D
:10154000E16B88421BD294F945602A4669462046E1
:10155000FFF7FDFD0746701C60B9606A08B90120FD
:1015600000E0002050B904F1240001F0B7FC28B1DC
:10157000012703E0701C40B284F8450000BF3846E4
:10158000BDE8FC812E2E5C46726565524F54535C5B
:1015900071756575652E63004572726F723A2573B9
:1015A0002C25640D0A000000F8B505460F461348C7
:1015B0000068C068C468201D00F088FBE06901284D
:1015C00018D1A06941192B463A462046FFF754FF2F
:1015D00080B1002003462A4601460090204601F0D3
:1015E000A1FD06462EB94FF4027205A10AA0FEF72E
:1015F00063FE00BF2046616A8847F8BD3C000020BA
:101600002E2E5C46726565524F54535C74696D654D
:1016100072732E63000000004572726F723A257378
:101620002C25640D0A000000F0B587B070E0039827
:1016300000280CDA04AE2EB940F2E7223AA140A00D
:10164000FEF73AFED6E90020B168904700BF039844
:1016500000285DDB059C606908B9012000E00020DE
:1016600010B9201D00F032FB02A800F0C7F80546B3
:1016700003980A284AD2DFE800F00905072C2E4516
:1016800006082D2F00BF00BF00BF00BF0498A2694D
:10169000811803462A462046FFF7EEFEC0B12046D9
:1016A000616A8847E069012812D1002000900498FF
:1016B000A169421800231946204601F033FD074670
:1016C0002FB940F2213218A11DA0FEF7F5FD00BF91
:1016D0001DE000BF1BE000BF0498A061A06908B135
:1016E000012000E0002028B94FF44E720EA114A092
:1016F000FEF7E2FDA06941192B462A462046FFF776
:10170000BBFE04E0204600F0A7FB00E000BF00BFE6
:1017100000231A4603A90E48006800F087FF00283E
:1017200085D107B0F0BD00002E2E5C467265655273
:101730004F54535C74696D6572732E630000000032
:101740004572726F723A25732C25640D0A000000F1
:1017500044000020F8B505460C4600F067FE6846D8
:1017600000F04CF80646009820BB44B9B54206D8B4
:1017700001F00EFC31462846FFF716FF1CE03CB195
:101780000E480068006808B9012000E00020044607
:10179000A91B22460A48006800F030FC01F0F8FB63
:1017A00050B94FF0805007490860BFF34F8FBFF327
:1017B0006F8F01E001F0ECFBF8BD0000400000205D
:1017C0004400002004ED00E00A490968096809B9ED
:1017D000012100E0002121B14FF0FF31064A1160E4
:1017E00006E004490968C968C868034A416811608D
:1017F00070470000040000203000002070B504464F
:1018000001F04AFA054607480068854204D200F014
:101810000BF80120206001E00020206001480560F5
:10182000284670BD4C0000202DE9F8432DE02148EA
:101830000068C06805681F480068C068C468201D4B
:1018400000F044FA2046616A8847E06901281CD10B
:10185000A0694619AE4207D966602461211D15486A
:10186000006800F057FA10E0002003462A460146BF
:101870000090204601F056FC07462FB940F2923204
:101880000DA113A0FEF718FD00BF0A48006800680C
:1018900008B9012000E000200028C8D00548D0F891
:1018A00000800F480068034908600D48C0F80080B8
:1018B000BDE8F8833C0000202E2E5C467265655220
:1018C0004F54535C74696D6572732E6300000000A1
:1018D0004572726F723A25732C25640D0A00000060
:1018E000400000200B480068401C08B9012000E0BF
:1018F000002020B9F42208A112A0FEF7DDFC00BFF1
:10190000502080F31188BFF34F8FBFF36F8F00BF5C
:1019100000BFFEE7680000202E2E5C46726565520F
:101920004F54535C706F727461626C655C525644C4
:10193000535C41524D5F434D335C706F72742E6344
:10194000000000004572726F723A25732C25640DF9
:101950000A00000008B500BF6846FFF73FFC0446D8
:1019600020460099FFF7F6FEFFF75EFEF4E770B53C
:10197000044600F0F5F994F945501AE0A06C38B12E
:1019800000212046FFF7C0FD88B100F01DFC0EE0ED
:10199000606A08B9012000E0002038B904F1240091
:1019A00001F09CFA18B100F00FFC00E003E0681EA3
:1019B00045B2002DE2DC00BFFF2084F8450000F0B6
:1019C00013FA00F0CDF994F9445010E0206908B9F9
:1019D000012000E0002048B904F1100001F07EFA77
:1019E00008B100F0F1FB681E45B200E001E0002DF7
:1019F000ECDC00BFFF2084F8440000F0F5F970BD76
:101A00002DE9F04104464FF0000800F00FFD3E487C
:101A1000006808B9FFF7F6FB3C4800682040002842
:101A20005FD1A4B1083404F0070080B104F00700CE
:101A3000C0F10800044404F0070008B9012000E0E8
:101A4000002020B9BF2232A13BA0FEF735FC002CBC
:101A500047D03D480068844243D83C4E3046056834
:101A600001E02E462D686868A04202D2286800284E
:101A7000F7D125480068854233D0306800F1080866
:101A8000286830606868001B102813D92F1907F0E8
:101A9000070008B9012000E0002020B9EC221CA1B9
:101AA00025A0FEF709FC6868001B78606C6038466A
:101AB000FFF7AEFC244968680968081A22490860E3
:101AC0000846006822490968884203D21E48006817
:101AD0001F4908600D49686809680843686000206C
:101AE000286001F055FA08F0070008B9012000E06D
:101AF000002028B94FF4967205A10FA0FEF7DCFB79
:101B00004046BDE8F081000058000020640000203D
:101B10002E2E5C46726565524F54535C706F727422
:101B200061626C655C4D656D4D616E675C68656199
:101B3000705F342E630000004572726F723A257335
:101B40002C25640D0A0000005C00002050000020DD
:101B5000600000200648006830B10549096801F1BD
:101B60005000096D491C0160014800687047000081
:101B700000000020001F4FF080730360001F21F061
:101B800001030360001F034B036014380260203818
:101B900070470000E51800081CB5044600F0E0F8A6
:101BA0001248022100233222CDE9001010A113486F
:101BB00001F032F81248032100233222CDE900104F
:101BC00010A1134801F028F8124803210023322203
:101BD000CDE9001010A1134801F01EF8124800686A
:101BE00000F06CFA00F000F91CBD00009800002025
:101BF0006C6564305F7461736B000000510E000807
:101C00009C0000206C6564315F7461736B000000A0
:101C1000710E0008A00000206C6564325F7461736F
:101C20006B000000990E00089400002010B586B0EB
:101C30000446012144F20400FEF77EFE4FF40070DA
:101C4000ADF8140003208DF8160018208DF8170049
:101C500005A91C48FEF775FD4FF48060ADF814002F
:101C600004208DF8170005A91648FEF76AFD252007
:101C70008DF8000003208DF801008DF8020001208E
:101C80008DF803006846FEF715FE01940020ADF8BC
:101C90000800ADF80A00ADF80C00ADF810000C20FB
:101CA000ADF80E0001A90848FFF720F8012240F224
:101CB00025510548FEF7F4FF01210348FEF7BAFF5E
:101CC00006B010BD000801400038014001460A6915
:101CD000D1E901309860D1E9010358605068884229
:101CE00001D188685060002008611068401E1060B3
:101CF0001068704700F1080141604FF0FF318160CA
:101D000000F10801C16001610021016070470021FC
:101D10000161704710B502460B685C1C0CB9106974
:101D200007E002F1080000E04068446824689C4233
:101D3000FAD944684C604C68A160886041600A61CF
:101D40001468641C146010BD42684A6093688B601C
:101D5000936859609160086103685B1C0360704779
:101D600010B500BF502080F31188BFF34F8FBFF331
:101D70006F8F00BF0B480068401C0A490860084686
:101D8000006801280DD108480068C0B208B90120D8
:101D900000E0002028B94FF4BD7204A10EA0FEF7A8
:101DA0008BFA10BD6800002004ED00E02E2E5C468A
:101DB000726565524F54535C706F727461626C65EA
:101DC0005C525644535C41524D5F434D335C706FDF
:101DD00072742E63000000004572726F723A2573B0
:101DE0002C25640D0A00000010B50B48006828B9C6
:101DF00040F2811209A114A0FEF75EFA06480068BD
:101E0000401E054908600846006820B9002080F39C
:101E1000118800BF00BF10BD680000202E2E5C4658
:101E2000726565524F54535C706F727461626C6579
:101E30005C525644535C41524D5F434D335C706F6E
:101E400072742E63000000004572726F723A25733F
:101E50002C25640D0A00000070B506463546002E9C
:101E600035D0083D2C461A4960680968084008B119
:101E7000012000E0002028B94FF4A07215A11FA096
:101E8000FEF71AFA206808B9012000E0002028B9FE
:101E900040F241120FA119A0FEF70EFA0C4960683A
:101EA0000968084098B1206888B9094960680968DC
:101EB0008843606000F0BAFA144960680968084411
:101EC000124908602046FFF7A3FA01F061F870BDDF
:101ED000640000202E2E5C46726565524F54535CA0
:101EE000706F727461626C655C4D656D4D616E679B
:101EF0005C686561705F342E630000004572726F2C
:101F0000723A25732C25640D0A0000005C00002045
:101F1000064800684FF47A71B0FBF1F0401E4FF0B4
:101F2000E02148610720086170470000A4000020FC
:101F300070B5FEF79BF90546102D11D305F1E02091
:101F400090F8F04310480078844201DB012000E063
:101F5000002028B94FF42A720CA117A0FEF7ACF9A3
:101F60001948006800F4E06018490968884201D8FF
:101F7000012000E0002028B94FF42E7203A10EA02A
:101F8000FEF79AF970BD00006C0000202E2E5C4612
:101F9000726565524F54535C706F727461626C6508
:101FA0005C525644535C41524D5F434D335C706FFD
:101FB00072742E63000000004572726F723A2573CE
:101FC0002C25640D0A0000000CED00E070000020DC
:101FD000024600200BE0084B53F8303033B9064B73
:101FE00043F8301003EBC0035A6002E0401C08289D
:101FF000F1D300BF70470000B80000202DE9F04188
:1020000005460E4617462C46FFF7AAFE94F94400F3
:10201000401C10B9002084F8440094F94500401C8D
:1020200010B9002084F84500FFF7DEFEA06B28B948
:102030003A46314604F1240000F0F6F82046FFF756
:1020400096FCBDE8F081000070B504460025ACB1F7
:102050000F48006808B9012000E0002028B940F2CC
:10206000CF420CA110A0FEF727F900F0DFF9002104
:102070002046FEF74BFF00F08BFF05463DB94FF0C1
:1020800080500D490860BFF34F8FBFF36F8F70BD55
:10209000380000202E2E5C46726565524F54535C0A
:1020A0007461736B732E63004572726F723A25739D
:1020B0002C25640D0A00000004ED00E070B5054613
:1020C000FFF74EFE15B92D48006800E0284604468B
:1020D000201DFFF7FBFD78B9E06A00EB800028497E
:1020E00051F8200040B994F82C100120884025496F
:1020F0000968814323480160A06A18B104F11800FF
:10210000FFF7E4FD20480068401C1F4908601B4899
:102110000068844209D1211D1C48FFF715FE1C48A8
:102120000068401C1A49086009E01A480068401E0F
:10213000184908602046FFF748F8FFF745FBFFF70E
:1021400053FE15480068C0B10C480068844214D1A1
:102150001248006808B9012000E0002028B940F2C8
:1021600065420FA113A0FEF7A7F84FF08050154964
:102170000860BFF34F8FBFF36F8F70BD000000206A
:10218000F8000020180000202C000020B4030020DC
:102190000C000020100000201C000020380000204F
:1021A0002E2E5C46726565524F54535C7461736B9E
:1021B000732E63004572726F723A25732C25640D7D
:1021C0000A00000004ED00E00120014908607047AA
:1021D0002400002070B504460D462CB940F60632A6
:1021E00007A10CA0FEF768F80E48016818312046D8
:1021F000FFF790FD01212846FEF788FE70BD000024
:102200002E2E5C46726565524F54535C7461736B3D
:10221000732E63004572726F723A25732C25640D1C
:102220000A0000000000002070B505460E46144666
:102230002DB940F6313209A10DA0FEF73DF8104846
:10224000016818312846FFF77FFD0CB14FF0FF36CB
:1022500021463046FEF75AFE70BD00002E2E5C4629
:10226000726565524F54535C7461736B732E6300D7
:102270004572726F723A25732C25640D0A000000B6
:102280000000002070B505462C46002D4BD0264995
:10229000E06A0968C96A884245D2A06900F0004036
:1022A00028B921480068C06AC0F12000A061E16A35
:1022B00001EB81011D4A02EB81016069884201D175
:1022C000012000E0002050B3201DFFF7FFFC78B98B
:1022D000E06A00EB8000154951F8200040B994F8FD
:1022E0002C10012088401249096881431048016080
:1022F0000D480068C06AE06294F82C100120884004
:102300000B49096808430A490860E16A01EB810149
:10231000064A02EB8100211DFFF716FD03E002488B
:102320000068C06AE06270BD00000020F800002074
:102330001800002010B504462CB940F6C13205A1A2
:1023400009A0FDF7B9FF0C48006820600B48006841
:10235000606010BD2E2E5C46726565524F54535C12
:102360007461736B732E63004572726F723A2573DA
:102370002C25640D0A000000280000201400002015
:102380001CB51A4800210B468222CDE9001018A185
:10239000194800F041FC0446012C02D100F088FEEF
:1023A0000446012C15D100BF502080F31188BFF3E3
:1023B0004F8FBFF36F8F00BF4FF0FF300F490860A2
:1023C00001200F49086000200E49086000F08AF8DB
:1023D0000BE0601C08B1012000E0002028B940F2A9
:1023E000847209A10DA0FDF767FF1CBD3400002019
:1023F00049444C45000000008112000830000020D4
:102400001C000020140000202E2E5C4672656552D0
:102410004F54535C7461736B732E63004572726F1B
:10242000723A25732C25640D0A00000002480068EA
:10243000401C0149086070473800002010B51B4857
:10244000006818B101201A4908602DE000201849E1
:10245000086018480068B0FA80F0C0F11F0404EB6F
:102460008400154951F8200008B1012000E0002047
:1024700028B940F6F62211A115A0FDF71DFF04EBC7
:1024800084010D4A02EB810041684968416000F116
:10249000080142688A4202D1416849684160416846
:1024A000C9680F4A116000BF10BD0000380000204D
:1024B0002400002018000020F80000202E2E5C468A
:1024C000726565524F54535C7461736B732E630075
:1024D0004572726F723A25732C25640D0A00000054
:1024E000000000201CB52248014609780191FF2117
:1024F000024611700146097800919DF8001001F024
:1025000050011C4A117007211B4A116009E01A4949
:102510000968491E184A11609DF800104906090E05
:1025200000919DF8001001F080018029EFD0124940
:1025300009680902104A11601146098801F4E06136
:1025400011600B4A019911700C48006840F470004A
:102550000A4908600846006840F070400860FFF7CC
:10256000D7FC002006490860FDF74AFE00201CBD8C
:1025700000E400E06C0000207000002020ED00E08E
:102580006800002010B500BF502080F31188BFF311
:102590004F8FBFF36F8F00BF00F084FB18B14FF077
:1025A00080500449086000BF002080F3118800BFFC
:1025B00010BD000004ED00E02DE9F84305460E468D
:1025C00090460DB1012000E0002028B94FF4C472FC
:1025D0000DA112A0FDF770FE0EB9002701E005FB6A
:1025E00006F707F15400FFF70BFA044644B104F173
:1025F000540943464A46314628460094FEF754FEA5
:102600002046BDE8F88300002E2E5C4672656552B8
:102610004F54535C71756575652E63004572726F1A
:10262000723A25732C25640D0A0000002DE9FF473E
:1026300082B005460E461F464FF0000A2C462CB9C4
:1026400040F2DC4261A166A0FDF736FE0EB9206CB7
:1026500008B9012000E0002028B940F2DD425BA16A
:102660005FA0FDF729FE00F007FB08B9049808B940
:10267000012000E0002028B94FF49C6253A158A02B
:10268000FDF71AFE00BFFFF76BFBD4F83890B9F1E5
:10269000000F3DD0D4F80C8031462046FEF742FDB5
:1026A000DFB9A9F10100A063206810B9FFF752FA61
:1026B0006060206908B9012000E0002010BB04F12F
:1026C000100000F00BFCE8B14FF080504849086062
:1026D000BFF34F8FBFF36F8F14E0C4F80C80606AB4
:1026E00008B9012000E0002060B904F1240000F0E6
:1026F000F5FB38B14FF080503D490860BFF34F8F74
:10270000BFF36F8FFFF770FB012006B0BDE8F087C5
:10271000049818B9FFF768FB0020F6E7BAF1000F3C
:1027200004D16846FFF706FE4FF0010AFFF75CFB95
:10273000FFF77CFEFFF714FB94F94400401C10B92E
:10274000002084F8440094F94500401C10B9002092
:1027500084F84500FFF748FB04A9684600F00CFA2E
:1027600040BB2046FEF7B4FEF0B1206830B9FFF759
:10277000F7FA6068FFF786FDFFF736FB04F12400E7
:102780000499FFF727FD2046FFF7F1F800F000FC61
:1027900000287FF478AF4FF0805015490860BFF3F0
:1027A0004F8FBFF36F8F6EE72046FFF7E0F800F022
:1027B000EFFB68E72046FFF7DAF800F0E9FB204678
:1027C000FEF786FE0028EED000209EE72E2E5C4607
:1027D000726565524F54535C71756575652E630063
:1027E0004572726F723A25732C25640D0A00000041
:1027F00004ED00E070B505460E462C462CB940F2BB
:102800001B121EA122A0FDF757FDFFF7A9FAD4E97C
:102810000F12206801FB020060600020A0632068A6
:10282000A060E06B401E226C216800FB0210E0609B
:10283000FF2084F8440084F845009EB9206908B957
:10284000012000E00020A8B904F1100000F046FBD0
:1028500080B14FF0805012490860BFF34F8FBFF333
:102860006F8F07E004F11000FFF744FA04F1240031
:10287000FFF740FAFFF7B8FA012070BD2E2E5C4634
:10288000726565524F54535C71756575652E6300B2
:102890004572726F723A25732C25640D0A00000090
:1028A00004ED00E02DE9FF4383B0064688461D464F
:1028B0004FF0000934462CB940F2D92260A165A03E
:1028C000FDF7FAFCB8F1000F01D1206C08B9012026
:1028D00000E0002028B940F2DA2259A15DA0FDF7FE
:1028E000EBFC022D02D1E06B012801D1012000E0B8
:1028F000002028B940F2DB2251A156A0FDF7DCFCF4
:1029000000F0BAF908B9059808B9012000E00020E4
:1029100028B940F2DE224AA14EA0FDF7CDFC00BF4F
:10292000FFF71EFAA06BE16B884201D3022D38D16C
:102930002A4641462046FEF70AFC0746A06C68B1CD
:1029400029462046FEF7E0FD28B34FF08050454968
:102950000860BFF34F8FBFF36F8F1CE0606A08B948
:10296000012000E0002068B904F1240000F0B6FA6C
:1029700088B14FF080503B490860BFF34F8FBFF3E1
:102980006F8F08E03FB14FF0805036490860BFF3C9
:102990004F8FBFF36F8FFFF727FA012007B0BDE815
:1029A000F083059818B9FFF71FFA0020F6E7B9F190
:1029B000000F04D101A8FFF7BDFC4FF00109FFF79C
:1029C00013FAFFF733FDFFF7CBF994F94400401CED
:1029D00010B9002084F8440094F94500401C10B957
:1029E000002084F84500FFF7FFF905A901A800F0D1
:1029F000C3F8F0B92046FEF778FDA0B104F110004D
:102A00000599FFF7E7FB2046FEF7B1FF00F0C0FA9B
:102A1000002885D14FF0805012490860BFF34F8FD6
:102A2000BFF36F8F7CE72046FEF7A1FF00F0B0FAFE
:102A300076E72046FEF79BFF00F0AAFA0020ADE7FC
:102A40002E2E5C46726565524F54535C71756575E8
:102A5000652E63004572726F723A25732C25640DE2
:102A60000A00000004ED00E02DE9F05F80468A4690
:102A700015461E4644462CB940F29F3235A13AA075
:102A8000FDF71AFCBAF1000F01D1206C08B9012042
:102A900000E0002028B94FF468722EA132A0FDF7A3
:102AA0000BFC022E02D1E06B012801D1012000E0D5
:102AB000002028B940F2A13226A12BA0FDF7FCFB93
:102AC000FFF736FA00BF5021EFF3118081F3118830
:102AD000BFF34F8FBFF36F8F00BF0746A06BE16B53
:102AE000884201D3022E2BD194F945B0324651468B
:102AF0002046FEF72CFB0BF10100C8B9A06C40B1D9
:102B000031462046FEF700FDB8B1B5B1012028607E
:102B100013E0606A08B9012000E0002068B904F100
:102B2000240000F0DBF940B13DB10120286004E051
:102B30000BF1010040B284F845004FF0010901E0BB
:102B40004FF0000900BF87F3118800BF4846BDE879
:102B5000F09F00002E2E5C46726565524F54535C08
:102B600071756575652E63004572726F723A2573D3
:102B70002C25640D0A0000002DE9F04104460D46A5
:102B80002CB940F6CB3219A11DA0FDF795FB2DB94C
:102B900040F6CC3215A11AA0FDF78EFBFFF7E0F846
:102BA0001B4807682868401C08B9002619E0194925
:102BB00020680968884204D06068B84201D80126BC
:102BC0000FE06068381A2968884209D2286861686D
:102BD000791A401A28602046FFF7ACFB002600E077
:102BE0000126FFF701F93046BDE8F0812E2E5C4644
:102BF000726565524F54535C7461736B732E63003E
:102C00004572726F723A25732C25640D0A0000001C
:102C100014000020280000202DE9FF4F85B08046D9
:102C200089461746DDE912ABB800FEF7E9FE064615
:102C300056B15C20FEF7E4FE04460CB1266304E0C6
:102C40003046FFF709F900E000247CB10020CDE90F
:102C500000ABCDE902403A4649464046089BFEF7A4
:102C60003BFB2046FEF79EF9012501E04FF0FF35C2
:102C7000284609B0BDE8F08F0549096809B9012067
:102C800005E00449096809B9022000E00020704706
:102C90001C0000203800002001490868704700002F
:102CA000140000202DE9F0414FF000084148006871
:102CB000002872D140480068451C3F480560EDB9C6
:102CC0003E480068006808B9012000E0002028B9EB
:102CD00040F6D9123AA13FA0FDF7EEFA374807684F
:102CE00040480068354908603E4807603E48006833
:102CF000401C3D490860FEF767FD00BF3B48006887
:102D000085423CD300BF2D480068006808B9012007
:102D100000E0002020B14FF0FF30344908602DE082
:102D200026480068C068C4686668B54202D22F4869
:102D3000066023E0201DFEF7C9FFA06A18B104F168
:102D40001800FEF7C3FF94F82C1001208840284992
:102D50000968084326490860E16A01EB8101254AB8
:102D600002EB8100211DFEF7EFFF2349E06A0968AD
:102D7000C96A8842C7D34FF00108C4E700BF1E48A4
:102D80000068C06A00EB80001A4951F82000012851
:102D900001D94FF0010805E0FFE718480068401C22
:102DA000164908601648006808B14FF0010840460F
:102DB000BDE8F0813800002014000020040000204D
:102DC0002E2E5C46726565524F54535C7461736B72
:102DD000732E63004572726F723A25732C25640D51
:102DE0000A00000008000020280000203000002019
:102DF00018000020F8000020000000202000002023
:102E00002400002070B505462C460026002D4BD02E
:102E100026480068844201D1012000E0002028B942
:102E200040F6C76222A127A0FDF746FA206D28B917
:102E300040F6C9621EA123A0FDF73EFA206D401E98
:102E40002065E16CE06A88422ED0206D60BB201DB9
:102E5000FEF73CFF78B9E06A00EB80001D4951F8AD
:102E6000200040B994F82C10012088401A490968C4
:102E7000814319480160E06CE062E06AC0F1200023
:102E8000A06194F82C100120884013490968084378
:102E900011490860E16A01EB81010E4A02EB8100F1
:102EA000211DFEF751FF0126304670BD00000020B5
:102EB0002E2E5C46726565524F54535C7461736B81
:102EC000732E63004572726F723A25732C25640D60
:102ED0000A000000F80000201800002070B5064627
:102EE000F068C4682CB940F661321AA11EA0FDF743
:102EF000E3F904F11800FEF7E9FE1F480068A8B9DD
:102F0000201DFEF7E3FE94F82C10012088401B4999
:102F10000968084319490860E16A01EB8101184A10
:102F200002EB8100211DFEF70FFF04E004F1180100
:102F30001448FEF709FF1449E06A0968C96A884223
:102F400004D9012501201149086000E00025284628
:102F500070BD00002E2E5C46726565524F54535C66
:102F60007461736B732E63004572726F723A2573CE
:102F70002C25640D0A0000003800002018000020F5
:102F8000F8000020A0030020000000202400002002
:102F900070B5002400263448006828B94FF4FD625B
:102FA00032A137A0FDF788F9FEF7DAFE2E48006857
:102FB000401E2D4908600846006800284FD134485B
:102FC000006800284BD024E03248C068C46804F18F
:102FD0001800FEF77BFE201DFEF778FE94F82C10FB
:102FE000012088402C49096808432B490860E16AA0
:102FF00001EB8101294A02EB8100211DFEF7A4FEAD
:103000002749E06A0968C96A884202D30120254934
:1030100008602048006808B9012000E0002000286E
:10302000D2D00CB1FEF7D0FB1F48056865B100BFD8
:10303000FFF738FE10B101201A4908606D1E002DFF
:10304000F6D10020184908601648006838B10126FA
:10305000300716490860BFF34F8FBFF36F8FFEF73D
:10306000C3FE304670BD0000380000202E2E5C46A6
:10307000726565524F54535C7461736B732E6300B9
:103080004572726F723A25732C25640D0A00000098
:1030900010000020A003002018000020F8000020ED
:1030A00000000020240000202000002004ED00E0AB
:1030B0001CB50024FDF7D2FF0B48006858B10B483F
:1030C0001F2100234FF48272CDE9001008A10A48A5
:1030D000FFF7A2FD04462CB940F2331207A10DA060
:1030E000FDF7EAF820461CBD4400002048000020FF
:1030F000546D722053766300551900082E2E5C46DD
:10310000726565524F54535C74696D6572732E63BA
:10311000000000004572726F723A25732C25640D11
:103120000A0000002DE9FF4704460D4616461F46DB
:10313000DDF830804FF000092CB94FF4D37217A19D
:103140001CA0FDF7B9F81F48006810B30095019660
:103150000294062D15DAFFF78FFD022808D100230F
:103160004246694617480068FFF79CFB814610E01D
:1031700000231A46694613480068FFF793FB81460F
:1031800007E000233A4669460E480068FFF76CFCEA
:103190008146484604B0BDE8F08700002E2E5C460C
:1031A000726565524F54535C74696D6572732E631A
:1031B000000000004572726F723A25732C25640D71
:1031C0000A00000044000020E83100080000002050
:1031D000B80000006C010008A0320008B800002010
:1031E000785A00008801000800000000000000007C
:1031F00000000000000000000000000000000000CF
:1032000000000000000000000000000000000000BE
:1032100000000000000000000000000000000000AE
:10322000000000000000000000000000000000009E
:10323000000000000000000000000000000000008E
:10324000000000000000000000000000000000007E
:10325000AAAAAAAA000000000000000000000000C6
:103260000102030401020304060708090204060818
:10327000000000000000000000000000000000004E
:1032800000000000000000000000000000A24A044E
:103290000000000000000000010203040607080906
:040000050800027578
:00000001FF
